{
    "_format": "hh-sol-artifact-1",
    "contractName": "TokenTix",
    "sourceName": "contracts/TokenTix.sol",
    "abi": [
        {
            "inputs": [
                {
                    "internalType": "string",
                    "name": "_name",
                    "type": "string"
                },
                {
                    "internalType": "string",
                    "name": "_symbol",
                    "type": "string"
                }
            ],
            "stateMutability": "nonpayable",
            "type": "constructor"
        },
        {
            "inputs": [
                {
                    "internalType": "address",
                    "name": "sender",
                    "type": "address"
                },
                {
                    "internalType": "uint256",
                    "name": "tokenId",
                    "type": "uint256"
                },
                {
                    "internalType": "address",
                    "name": "owner",
                    "type": "address"
                }
            ],
            "name": "ERC721IncorrectOwner",
            "type": "error"
        },
        {
            "inputs": [
                {
                    "internalType": "address",
                    "name": "operator",
                    "type": "address"
                },
                {
                    "internalType": "uint256",
                    "name": "tokenId",
                    "type": "uint256"
                }
            ],
            "name": "ERC721InsufficientApproval",
            "type": "error"
        },
        {
            "inputs": [
                {
                    "internalType": "address",
                    "name": "approver",
                    "type": "address"
                }
            ],
            "name": "ERC721InvalidApprover",
            "type": "error"
        },
        {
            "inputs": [
                {
                    "internalType": "address",
                    "name": "operator",
                    "type": "address"
                }
            ],
            "name": "ERC721InvalidOperator",
            "type": "error"
        },
        {
            "inputs": [
                {
                    "internalType": "address",
                    "name": "owner",
                    "type": "address"
                }
            ],
            "name": "ERC721InvalidOwner",
            "type": "error"
        },
        {
            "inputs": [
                {
                    "internalType": "address",
                    "name": "receiver",
                    "type": "address"
                }
            ],
            "name": "ERC721InvalidReceiver",
            "type": "error"
        },
        {
            "inputs": [
                {
                    "internalType": "address",
                    "name": "sender",
                    "type": "address"
                }
            ],
            "name": "ERC721InvalidSender",
            "type": "error"
        },
        {
            "inputs": [
                {
                    "internalType": "uint256",
                    "name": "tokenId",
                    "type": "uint256"
                }
            ],
            "name": "ERC721NonexistentToken",
            "type": "error"
        },
        {
            "anonymous": false,
            "inputs": [
                {
                    "indexed": true,
                    "internalType": "address",
                    "name": "owner",
                    "type": "address"
                },
                {
                    "indexed": true,
                    "internalType": "address",
                    "name": "approved",
                    "type": "address"
                },
                {
                    "indexed": true,
                    "internalType": "uint256",
                    "name": "tokenId",
                    "type": "uint256"
                }
            ],
            "name": "Approval",
            "type": "event"
        },
        {
            "anonymous": false,
            "inputs": [
                {
                    "indexed": true,
                    "internalType": "address",
                    "name": "owner",
                    "type": "address"
                },
                {
                    "indexed": true,
                    "internalType": "address",
                    "name": "operator",
                    "type": "address"
                },
                {
                    "indexed": false,
                    "internalType": "bool",
                    "name": "approved",
                    "type": "bool"
                }
            ],
            "name": "ApprovalForAll",
            "type": "event"
        },
        {
            "anonymous": false,
            "inputs": [
                {
                    "indexed": true,
                    "internalType": "address",
                    "name": "from",
                    "type": "address"
                },
                {
                    "indexed": true,
                    "internalType": "address",
                    "name": "to",
                    "type": "address"
                },
                {
                    "indexed": true,
                    "internalType": "uint256",
                    "name": "tokenId",
                    "type": "uint256"
                }
            ],
            "name": "Transfer",
            "type": "event"
        },
        {
            "inputs": [
                {
                    "internalType": "address",
                    "name": "to",
                    "type": "address"
                },
                {
                    "internalType": "uint256",
                    "name": "tokenId",
                    "type": "uint256"
                }
            ],
            "name": "approve",
            "outputs": [],
            "stateMutability": "nonpayable",
            "type": "function"
        },
        {
            "inputs": [
                {
                    "internalType": "address",
                    "name": "owner",
                    "type": "address"
                }
            ],
            "name": "balanceOf",
            "outputs": [
                {
                    "internalType": "uint256",
                    "name": "",
                    "type": "uint256"
                }
            ],
            "stateMutability": "view",
            "type": "function"
        },
        {
            "inputs": [
                {
                    "internalType": "uint256",
                    "name": "_id",
                    "type": "uint256"
                },
                {
                    "internalType": "uint256",
                    "name": "_seat",
                    "type": "uint256"
                }
            ],
            "name": "buyTicket",
            "outputs": [],
            "stateMutability": "payable",
            "type": "function"
        },
        {
            "inputs": [
                {
                    "internalType": "string",
                    "name": "_name",
                    "type": "string"
                },
                {
                    "internalType": "uint256",
                    "name": "_price",
                    "type": "uint256"
                },
                {
                    "internalType": "uint256",
                    "name": "_noOfTickets",
                    "type": "uint256"
                },
                {
                    "internalType": "string",
                    "name": "_date",
                    "type": "string"
                },
                {
                    "internalType": "string",
                    "name": "_location",
                    "type": "string"
                },
                {
                    "internalType": "string",
                    "name": "_time",
                    "type": "string"
                }
            ],
            "name": "createOccasion",
            "outputs": [],
            "stateMutability": "nonpayable",
            "type": "function"
        },
        {
            "inputs": [
                {
                    "internalType": "uint256",
                    "name": "tokenId",
                    "type": "uint256"
                }
            ],
            "name": "getApproved",
            "outputs": [
                {
                    "internalType": "address",
                    "name": "",
                    "type": "address"
                }
            ],
            "stateMutability": "view",
            "type": "function"
        },
        {
            "inputs": [
                {
                    "internalType": "uint256",
                    "name": "_id",
                    "type": "uint256"
                }
            ],
            "name": "getOccasion",
            "outputs": [
                {
                    "components": [
                        {
                            "internalType": "uint256",
                            "name": "id",
                            "type": "uint256"
                        },
                        {
                            "internalType": "string",
                            "name": "name",
                            "type": "string"
                        },
                        {
                            "internalType": "uint256",
                            "name": "price",
                            "type": "uint256"
                        },
                        {
                            "internalType": "uint256",
                            "name": "noOfTickets",
                            "type": "uint256"
                        },
                        {
                            "internalType": "string",
                            "name": "date",
                            "type": "string"
                        },
                        {
                            "internalType": "string",
                            "name": "location",
                            "type": "string"
                        },
                        {
                            "internalType": "string",
                            "name": "time",
                            "type": "string"
                        }
                    ],
                    "internalType": "struct TokenTix.Occasion",
                    "name": "",
                    "type": "tuple"
                }
            ],
            "stateMutability": "view",
            "type": "function"
        },
        {
            "inputs": [
                {
                    "internalType": "uint256",
                    "name": "",
                    "type": "uint256"
                },
                {
                    "internalType": "address",
                    "name": "",
                    "type": "address"
                }
            ],
            "name": "hasTicket",
            "outputs": [
                {
                    "internalType": "bool",
                    "name": "",
                    "type": "bool"
                }
            ],
            "stateMutability": "view",
            "type": "function"
        },
        {
            "inputs": [
                {
                    "internalType": "address",
                    "name": "owner",
                    "type": "address"
                },
                {
                    "internalType": "address",
                    "name": "operator",
                    "type": "address"
                }
            ],
            "name": "isApprovedForAll",
            "outputs": [
                {
                    "internalType": "bool",
                    "name": "",
                    "type": "bool"
                }
            ],
            "stateMutability": "view",
            "type": "function"
        },
        {
            "inputs": [],
            "name": "name",
            "outputs": [
                {
                    "internalType": "string",
                    "name": "",
                    "type": "string"
                }
            ],
            "stateMutability": "view",
            "type": "function"
        },
        {
            "inputs": [],
            "name": "occCount",
            "outputs": [
                {
                    "internalType": "uint256",
                    "name": "",
                    "type": "uint256"
                }
            ],
            "stateMutability": "view",
            "type": "function"
        },
        {
            "inputs": [],
            "name": "owner",
            "outputs": [
                {
                    "internalType": "address",
                    "name": "",
                    "type": "address"
                }
            ],
            "stateMutability": "view",
            "type": "function"
        },
        {
            "inputs": [
                {
                    "internalType": "uint256",
                    "name": "tokenId",
                    "type": "uint256"
                }
            ],
            "name": "ownerOf",
            "outputs": [
                {
                    "internalType": "address",
                    "name": "",
                    "type": "address"
                }
            ],
            "stateMutability": "view",
            "type": "function"
        },
        {
            "inputs": [
                {
                    "internalType": "address",
                    "name": "from",
                    "type": "address"
                },
                {
                    "internalType": "address",
                    "name": "to",
                    "type": "address"
                },
                {
                    "internalType": "uint256",
                    "name": "tokenId",
                    "type": "uint256"
                }
            ],
            "name": "safeTransferFrom",
            "outputs": [],
            "stateMutability": "nonpayable",
            "type": "function"
        },
        {
            "inputs": [
                {
                    "internalType": "address",
                    "name": "from",
                    "type": "address"
                },
                {
                    "internalType": "address",
                    "name": "to",
                    "type": "address"
                },
                {
                    "internalType": "uint256",
                    "name": "tokenId",
                    "type": "uint256"
                },
                {
                    "internalType": "bytes",
                    "name": "data",
                    "type": "bytes"
                }
            ],
            "name": "safeTransferFrom",
            "outputs": [],
            "stateMutability": "nonpayable",
            "type": "function"
        },
        {
            "inputs": [
                {
                    "internalType": "uint256",
                    "name": "",
                    "type": "uint256"
                },
                {
                    "internalType": "uint256",
                    "name": "",
                    "type": "uint256"
                }
            ],
            "name": "seatOwner",
            "outputs": [
                {
                    "internalType": "address",
                    "name": "",
                    "type": "address"
                }
            ],
            "stateMutability": "view",
            "type": "function"
        },
        {
            "inputs": [
                {
                    "internalType": "address",
                    "name": "operator",
                    "type": "address"
                },
                {
                    "internalType": "bool",
                    "name": "approved",
                    "type": "bool"
                }
            ],
            "name": "setApprovalForAll",
            "outputs": [],
            "stateMutability": "nonpayable",
            "type": "function"
        },
        {
            "inputs": [
                {
                    "internalType": "bytes4",
                    "name": "interfaceId",
                    "type": "bytes4"
                }
            ],
            "name": "supportsInterface",
            "outputs": [
                {
                    "internalType": "bool",
                    "name": "",
                    "type": "bool"
                }
            ],
            "stateMutability": "view",
            "type": "function"
        },
        {
            "inputs": [],
            "name": "symbol",
            "outputs": [
                {
                    "internalType": "string",
                    "name": "",
                    "type": "string"
                }
            ],
            "stateMutability": "view",
            "type": "function"
        },
        {
            "inputs": [],
            "name": "tixCount",
            "outputs": [
                {
                    "internalType": "uint256",
                    "name": "",
                    "type": "uint256"
                }
            ],
            "stateMutability": "view",
            "type": "function"
        },
        {
            "inputs": [
                {
                    "internalType": "uint256",
                    "name": "tokenId",
                    "type": "uint256"
                }
            ],
            "name": "tokenURI",
            "outputs": [
                {
                    "internalType": "string",
                    "name": "",
                    "type": "string"
                }
            ],
            "stateMutability": "view",
            "type": "function"
        },
        {
            "inputs": [
                {
                    "internalType": "address",
                    "name": "from",
                    "type": "address"
                },
                {
                    "internalType": "address",
                    "name": "to",
                    "type": "address"
                },
                {
                    "internalType": "uint256",
                    "name": "tokenId",
                    "type": "uint256"
                }
            ],
            "name": "transferFrom",
            "outputs": [],
            "stateMutability": "nonpayable",
            "type": "function"
        },
        {
            "inputs": [],
            "name": "withDraw",
            "outputs": [],
            "stateMutability": "nonpayable",
            "type": "function"
        }
    ],
    "bytecode": "0x60806040523480156200001157600080fd5b50604051620035d1380380620035d183398181016040528101906200003791906200023b565b818181600090816200004a91906200050b565b5080600190816200005c91906200050b565b50505033600c60006101000a81548173ffffffffffffffffffffffffffffffffffffffff021916908373ffffffffffffffffffffffffffffffffffffffff1602179055505050620005f2565b6000604051905090565b600080fd5b600080fd5b600080fd5b600080fd5b6000601f19601f8301169050919050565b7f4e487b7100000000000000000000000000000000000000000000000000000000600052604160045260246000fd5b6200011182620000c6565b810181811067ffffffffffffffff82111715620001335762000132620000d7565b5b80604052505050565b600062000148620000a8565b905062000156828262000106565b919050565b600067ffffffffffffffff821115620001795762000178620000d7565b5b6200018482620000c6565b9050602081019050919050565b60005b83811015620001b157808201518184015260208101905062000194565b60008484015250505050565b6000620001d4620001ce846200015b565b6200013c565b905082815260208101848484011115620001f357620001f2620000c1565b5b6200020084828562000191565b509392505050565b600082601f83011262000220576200021f620000bc565b5b815162000232848260208601620001bd565b91505092915050565b60008060408385031215620002555762000254620000b2565b5b600083015167ffffffffffffffff811115620002765762000275620000b7565b5b620002848582860162000208565b925050602083015167ffffffffffffffff811115620002a857620002a7620000b7565b5b620002b68582860162000208565b9150509250929050565b600081519050919050565b7f4e487b7100000000000000000000000000000000000000000000000000000000600052602260045260246000fd5b600060028204905060018216806200031357607f821691505b602082108103620003295762000328620002cb565b5b50919050565b60008190508160005260206000209050919050565b60006020601f8301049050919050565b600082821b905092915050565b600060088302620003937fffffffffffffffffffffffffffffffffffffffffffffffffffffffffffffffff8262000354565b6200039f868362000354565b95508019841693508086168417925050509392505050565b6000819050919050565b6000819050919050565b6000620003ec620003e6620003e084620003b7565b620003c1565b620003b7565b9050919050565b6000819050919050565b6200040883620003cb565b620004206200041782620003f3565b84845462000361565b825550505050565b600090565b6200043762000428565b62000444818484620003fd565b505050565b5b818110156200046c57620004606000826200042d565b6001810190506200044a565b5050565b601f821115620004bb5762000485816200032f565b620004908462000344565b81016020851015620004a0578190505b620004b8620004af8562000344565b83018262000449565b50505b505050565b600082821c905092915050565b6000620004e060001984600802620004c0565b1980831691505092915050565b6000620004fb8383620004cd565b9150826002028217905092915050565b6200051682620002c0565b67ffffffffffffffff811115620005325762000531620000d7565b5b6200053e8254620002fa565b6200054b82828562000470565b600060209050601f8311600181146200058357600084156200056e578287015190505b6200057a8582620004ed565b865550620005ea565b601f19841662000593866200032f565b60005b82811015620005bd5784890151825560018201915060208501945060208101905062000596565b86831015620005dd5784890151620005d9601f891682620004cd565b8355505b6001600288020188555050505b505050505050565b612fcf80620006026000396000f3fe6080604052600436106101355760003560e01c80636352211e116100ab578063a22cb4651161006f578063a22cb4651461042b578063b88d4fde14610454578063bcec36c01461047d578063c87b56dd146104ba578063e985e9c5146104f7578063ea2cb0591461053457610135565b80636352211e1461031e57806370a082311461035b57806374bc8656146103985780638da5cb5b146103d557806395d89b411461040057610135565b806323b872dd116100fd57806323b872dd1461021f578063298ec2081461024857806342842e0e146102645780634843d2b11461028d57806350f32e38146102ca5780635f40bc81146102f557610135565b806301ffc9a71461013a57806306fdde0314610177578063081812fc146101a2578063095ea7b3146101df5780630fdb1c1014610208575b600080fd5b34801561014657600080fd5b50610161600480360381019061015c91906120d9565b61055f565b60405161016e9190612121565b60405180910390f35b34801561018357600080fd5b5061018c610641565b60405161019991906121cc565b60405180910390f35b3480156101ae57600080fd5b506101c960048036038101906101c49190612224565b6106d3565b6040516101d69190612292565b60405180910390f35b3480156101eb57600080fd5b50610206600480360381019061020191906122d9565b6106ef565b005b34801561021457600080fd5b5061021d610705565b005b34801561022b57600080fd5b5061024660048036038101906102419190612319565b610830565b005b610262600480360381019061025d919061236c565b610932565b005b34801561027057600080fd5b5061028b60048036038101906102869190612319565b610b5e565b005b34801561029957600080fd5b506102b460048036038101906102af91906123ac565b610b7e565b6040516102c19190612121565b60405180910390f35b3480156102d657600080fd5b506102df610bad565b6040516102ec91906123fb565b60405180910390f35b34801561030157600080fd5b5061031c6004803603810190610317919061254b565b610bb3565b005b34801561032a57600080fd5b5061034560048036038101906103409190612224565b610d26565b6040516103529190612292565b60405180910390f35b34801561036757600080fd5b50610382600480360381019061037d9190612648565b610d38565b60405161038f91906123fb565b60405180910390f35b3480156103a457600080fd5b506103bf60048036038101906103ba9190612224565b610df2565b6040516103cc919061277f565b60405180910390f35b3480156103e157600080fd5b506103ea611085565b6040516103f79190612292565b60405180910390f35b34801561040c57600080fd5b506104156110ab565b60405161042291906121cc565b60405180910390f35b34801561043757600080fd5b50610452600480360381019061044d91906127cd565b61113d565b005b34801561046057600080fd5b5061047b600480360381019061047691906128ae565b611153565b005b34801561048957600080fd5b506104a4600480360381019061049f919061236c565b611170565b6040516104b19190612292565b60405180910390f35b3480156104c657600080fd5b506104e160048036038101906104dc9190612224565b6111b2565b6040516104ee91906121cc565b60405180910390f35b34801561050357600080fd5b5061051e60048036038101906105199190612931565b61121b565b60405161052b9190612121565b60405180910390f35b34801561054057600080fd5b506105496112af565b60405161055691906123fb565b60405180910390f35b60007f80ac58cd000000000000000000000000000000000000000000000000000000007bffffffffffffffffffffffffffffffffffffffffffffffffffffffff1916827bffffffffffffffffffffffffffffffffffffffffffffffffffffffff1916148061062a57507f5b5e139f000000000000000000000000000000000000000000000000000000007bffffffffffffffffffffffffffffffffffffffffffffffffffffffff1916827bffffffffffffffffffffffffffffffffffffffffffffffffffffffff1916145b8061063a5750610639826112b5565b5b9050919050565b606060008054610650906129a0565b80601f016020809104026020016040519081016040528092919081815260200182805461067c906129a0565b80156106c95780601f1061069e576101008083540402835291602001916106c9565b820191906000526020600020905b8154815290600101906020018083116106ac57829003601f168201915b5050505050905090565b60006106de8261131f565b506106e8826113a7565b9050919050565b61070182826106fc6113e4565b6113ec565b5050565b600c60009054906101000a900473ffffffffffffffffffffffffffffffffffffffff1673ffffffffffffffffffffffffffffffffffffffff163373ffffffffffffffffffffffffffffffffffffffff1614610795576040517f08c379a000000000000000000000000000000000000000000000000000000000815260040161078c90612a43565b60405180910390fd5b6000600c60009054906101000a900473ffffffffffffffffffffffffffffffffffffffff1673ffffffffffffffffffffffffffffffffffffffff16476040516107dd90612a94565b60006040518083038185875af1925050503d806000811461081a576040519150601f19603f3d011682016040523d82523d6000602084013e61081f565b606091505b505090508061082d57600080fd5b50565b600073ffffffffffffffffffffffffffffffffffffffff168273ffffffffffffffffffffffffffffffffffffffff16036108a25760006040517f64a0ae920000000000000000000000000000000000000000000000000000000081526004016108999190612292565b60405180910390fd5b60006108b683836108b16113e4565b6113fe565b90508373ffffffffffffffffffffffffffffffffffffffff168173ffffffffffffffffffffffffffffffffffffffff161461092c578382826040517f64283d7b00000000000000000000000000000000000000000000000000000000815260040161092393929190612aa9565b60405180910390fd5b50505050565b60065482111561094157600080fd5b600860008381526020019081526020016000206002015434101561096457600080fd5b600860008381526020019081526020016000206003015481111561098757600080fd5b600073ffffffffffffffffffffffffffffffffffffffff1660096000848152602001908152602001600020600083815260200190815260200160002060009054906101000a900473ffffffffffffffffffffffffffffffffffffffff1673ffffffffffffffffffffffffffffffffffffffff1614610a0457600080fd5b600860008381526020019081526020016000206003016000815480929190610a2b90612b0f565b91905055503360096000848152602001908152602001600020600083815260200190815260200160002060006101000a81548173ffffffffffffffffffffffffffffffffffffffff021916908373ffffffffffffffffffffffffffffffffffffffff160217905550600a60008381526020019081526020016000208190806001815401808255809150506001900390600052602060002001600090919091909150556001600b600084815260200190815260200160002060003373ffffffffffffffffffffffffffffffffffffffff1673ffffffffffffffffffffffffffffffffffffffff16815260200190815260200160002060006101000a81548160ff02191690831515021790555060076000815480929190610b4990612b38565b9190505550610b5a33600754611618565b5050565b610b7983838360405180602001604052806000815250611153565b505050565b600b6020528160005260406000206020528060005260406000206000915091509054906101000a900460ff1681565b60065481565b600c60009054906101000a900473ffffffffffffffffffffffffffffffffffffffff1673ffffffffffffffffffffffffffffffffffffffff163373ffffffffffffffffffffffffffffffffffffffff1614610c43576040517f08c379a0000000000000000000000000000000000000000000000000000000008152600401610c3a90612a43565b60405180910390fd5b60066000815480929190610c5690612b38565b91905055506040518060e00160405280600654815260200187815260200186815260200185815260200184815260200183815260200182815250600860006006548152602001908152602001600020600082015181600001556020820151816001019081610cc49190612d2c565b5060408201518160020155606082015181600301556080820151816004019081610cee9190612d2c565b5060a0820151816005019081610d049190612d2c565b5060c0820151816006019081610d1a9190612d2c565b50905050505050505050565b6000610d318261131f565b9050919050565b60008073ffffffffffffffffffffffffffffffffffffffff168273ffffffffffffffffffffffffffffffffffffffff1603610dab5760006040517f89c62b64000000000000000000000000000000000000000000000000000000008152600401610da29190612292565b60405180910390fd5b600360008373ffffffffffffffffffffffffffffffffffffffff1673ffffffffffffffffffffffffffffffffffffffff168152602001908152602001600020549050919050565b610dfa612030565b600860008381526020019081526020016000206040518060e001604052908160008201548152602001600182018054610e32906129a0565b80601f0160208091040260200160405190810160405280929190818152602001828054610e5e906129a0565b8015610eab5780601f10610e8057610100808354040283529160200191610eab565b820191906000526020600020905b815481529060010190602001808311610e8e57829003601f168201915b505050505081526020016002820154815260200160038201548152602001600482018054610ed8906129a0565b80601f0160208091040260200160405190810160405280929190818152602001828054610f04906129a0565b8015610f515780601f10610f2657610100808354040283529160200191610f51565b820191906000526020600020905b815481529060010190602001808311610f3457829003601f168201915b50505050508152602001600582018054610f6a906129a0565b80601f0160208091040260200160405190810160405280929190818152602001828054610f96906129a0565b8015610fe35780601f10610fb857610100808354040283529160200191610fe3565b820191906000526020600020905b815481529060010190602001808311610fc657829003601f168201915b50505050508152602001600682018054610ffc906129a0565b80601f0160208091040260200160405190810160405280929190818152602001828054611028906129a0565b80156110755780601f1061104a57610100808354040283529160200191611075565b820191906000526020600020905b81548152906001019060200180831161105857829003601f168201915b5050505050815250509050919050565b600c60009054906101000a900473ffffffffffffffffffffffffffffffffffffffff1681565b6060600180546110ba906129a0565b80601f01602080910402602001604051908101604052809291908181526020018280546110e6906129a0565b80156111335780601f1061110857610100808354040283529160200191611133565b820191906000526020600020905b81548152906001019060200180831161111657829003601f168201915b5050505050905090565b61114f6111486113e4565b8383611636565b5050565b61115e848484610830565b61116a848484846117a5565b50505050565b60096020528160005260406000206020528060005260406000206000915091509054906101000a900473ffffffffffffffffffffffffffffffffffffffff1681565b60606111bd8261131f565b5060006111c861195c565b905060008151116111e85760405180602001604052806000815250611213565b806111f284611973565b604051602001611203929190612e3a565b6040516020818303038152906040525b915050919050565b6000600560008473ffffffffffffffffffffffffffffffffffffffff1673ffffffffffffffffffffffffffffffffffffffff16815260200190815260200160002060008373ffffffffffffffffffffffffffffffffffffffff1673ffffffffffffffffffffffffffffffffffffffff16815260200190815260200160002060009054906101000a900460ff16905092915050565b60075481565b60007f01ffc9a7000000000000000000000000000000000000000000000000000000007bffffffffffffffffffffffffffffffffffffffffffffffffffffffff1916827bffffffffffffffffffffffffffffffffffffffffffffffffffffffff1916149050919050565b60008061132b83611a41565b9050600073ffffffffffffffffffffffffffffffffffffffff168173ffffffffffffffffffffffffffffffffffffffff160361139e57826040517f7e27328900000000000000000000000000000000000000000000000000000000815260040161139591906123fb565b60405180910390fd5b80915050919050565b60006004600083815260200190815260200160002060009054906101000a900473ffffffffffffffffffffffffffffffffffffffff169050919050565b600033905090565b6113f98383836001611a7e565b505050565b60008061140a84611a41565b9050600073ffffffffffffffffffffffffffffffffffffffff168373ffffffffffffffffffffffffffffffffffffffff161461144c5761144b818486611c43565b5b600073ffffffffffffffffffffffffffffffffffffffff168173ffffffffffffffffffffffffffffffffffffffff16146114dd5761148e600085600080611a7e565b6001600360008373ffffffffffffffffffffffffffffffffffffffff1673ffffffffffffffffffffffffffffffffffffffff168152602001908152602001600020600082825403925050819055505b600073ffffffffffffffffffffffffffffffffffffffff168573ffffffffffffffffffffffffffffffffffffffff1614611560576001600360008773ffffffffffffffffffffffffffffffffffffffff1673ffffffffffffffffffffffffffffffffffffffff168152602001908152602001600020600082825401925050819055505b846002600086815260200190815260200160002060006101000a81548173ffffffffffffffffffffffffffffffffffffffff021916908373ffffffffffffffffffffffffffffffffffffffff160217905550838573ffffffffffffffffffffffffffffffffffffffff168273ffffffffffffffffffffffffffffffffffffffff167fddf252ad1be2c89b69c2b068fc378daa952ba7f163c4a11628f55a4df523b3ef60405160405180910390a4809150509392505050565b611632828260405180602001604052806000815250611d07565b5050565b600073ffffffffffffffffffffffffffffffffffffffff168273ffffffffffffffffffffffffffffffffffffffff16036116a757816040517f5b08ba1800000000000000000000000000000000000000000000000000000000815260040161169e9190612292565b60405180910390fd5b80600560008573ffffffffffffffffffffffffffffffffffffffff1673ffffffffffffffffffffffffffffffffffffffff16815260200190815260200160002060008473ffffffffffffffffffffffffffffffffffffffff1673ffffffffffffffffffffffffffffffffffffffff16815260200190815260200160002060006101000a81548160ff0219169083151502179055508173ffffffffffffffffffffffffffffffffffffffff168373ffffffffffffffffffffffffffffffffffffffff167f17307eab39ab6107e8899845ad3d59bd9653f200f220920489ca2b5937696c31836040516117989190612121565b60405180910390a3505050565b60008373ffffffffffffffffffffffffffffffffffffffff163b1115611956578273ffffffffffffffffffffffffffffffffffffffff1663150b7a026117e96113e4565b8685856040518563ffffffff1660e01b815260040161180b9493929190612eb3565b6020604051808303816000875af192505050801561184757506040513d601f19601f820116820180604052508101906118449190612f14565b60015b6118cb573d8060008114611877576040519150601f19603f3d011682016040523d82523d6000602084013e61187c565b606091505b5060008151036118c357836040517f64a0ae920000000000000000000000000000000000000000000000000000000081526004016118ba9190612292565b60405180910390fd5b805181602001fd5b63150b7a0260e01b7bffffffffffffffffffffffffffffffffffffffffffffffffffffffff1916817bffffffffffffffffffffffffffffffffffffffffffffffffffffffff19161461195457836040517f64a0ae9200000000000000000000000000000000000000000000000000000000815260040161194b9190612292565b60405180910390fd5b505b50505050565b606060405180602001604052806000815250905090565b60606000600161198284611d23565b01905060008167ffffffffffffffff8111156119a1576119a0612420565b5b6040519080825280601f01601f1916602001820160405280156119d35781602001600182028036833780820191505090505b509050600082602001820190505b600115611a36578080600190039150507f3031323334353637383961626364656600000000000000000000000000000000600a86061a8153600a8581611a2a57611a29612f41565b5b049450600085036119e1575b819350505050919050565b60006002600083815260200190815260200160002060009054906101000a900473ffffffffffffffffffffffffffffffffffffffff169050919050565b8080611ab75750600073ffffffffffffffffffffffffffffffffffffffff168273ffffffffffffffffffffffffffffffffffffffff1614155b15611beb576000611ac78461131f565b9050600073ffffffffffffffffffffffffffffffffffffffff168373ffffffffffffffffffffffffffffffffffffffff1614158015611b3257508273ffffffffffffffffffffffffffffffffffffffff168173ffffffffffffffffffffffffffffffffffffffff1614155b8015611b455750611b43818461121b565b155b15611b8757826040517fa9fbf51f000000000000000000000000000000000000000000000000000000008152600401611b7e9190612292565b60405180910390fd5b8115611be957838573ffffffffffffffffffffffffffffffffffffffff168273ffffffffffffffffffffffffffffffffffffffff167f8c5be1e5ebec7d5bd14f71427d1e84f3dd0314c0f7b2291e5b200ac8c7c3b92560405160405180910390a45b505b836004600085815260200190815260200160002060006101000a81548173ffffffffffffffffffffffffffffffffffffffff021916908373ffffffffffffffffffffffffffffffffffffffff16021790555050505050565b611c4e838383611e76565b611d0257600073ffffffffffffffffffffffffffffffffffffffff168373ffffffffffffffffffffffffffffffffffffffff1603611cc357806040517f7e273289000000000000000000000000000000000000000000000000000000008152600401611cba91906123fb565b60405180910390fd5b81816040517f177e802f000000000000000000000000000000000000000000000000000000008152600401611cf9929190612f70565b60405180910390fd5b505050565b611d118383611f37565b611d1e60008484846117a5565b505050565b600080600090507a184f03e93ff9f4daa797ed6e38ed64bf6a1f0100000000000000008310611d81577a184f03e93ff9f4daa797ed6e38ed64bf6a1f0100000000000000008381611d7757611d76612f41565b5b0492506040810190505b6d04ee2d6d415b85acef81000000008310611dbe576d04ee2d6d415b85acef81000000008381611db457611db3612f41565b5b0492506020810190505b662386f26fc100008310611ded57662386f26fc100008381611de357611de2612f41565b5b0492506010810190505b6305f5e1008310611e16576305f5e1008381611e0c57611e0b612f41565b5b0492506008810190505b6127108310611e3b576127108381611e3157611e30612f41565b5b0492506004810190505b60648310611e5e5760648381611e5457611e53612f41565b5b0492506002810190505b600a8310611e6d576001810190505b80915050919050565b60008073ffffffffffffffffffffffffffffffffffffffff168373ffffffffffffffffffffffffffffffffffffffff1614158015611f2e57508273ffffffffffffffffffffffffffffffffffffffff168473ffffffffffffffffffffffffffffffffffffffff161480611eef5750611eee848461121b565b5b80611f2d57508273ffffffffffffffffffffffffffffffffffffffff16611f15836113a7565b73ffffffffffffffffffffffffffffffffffffffff16145b5b90509392505050565b600073ffffffffffffffffffffffffffffffffffffffff168273ffffffffffffffffffffffffffffffffffffffff1603611fa95760006040517f64a0ae92000000000000000000000000000000000000000000000000000000008152600401611fa09190612292565b60405180910390fd5b6000611fb7838360006113fe565b9050600073ffffffffffffffffffffffffffffffffffffffff168173ffffffffffffffffffffffffffffffffffffffff161461202b5760006040517f73c6ac6e0000000000000000000000000000000000000000000000000000000081526004016120229190612292565b60405180910390fd5b505050565b6040518060e00160405280600081526020016060815260200160008152602001600081526020016060815260200160608152602001606081525090565b6000604051905090565b600080fd5b600080fd5b60007fffffffff0000000000000000000000000000000000000000000000000000000082169050919050565b6120b681612081565b81146120c157600080fd5b50565b6000813590506120d3816120ad565b92915050565b6000602082840312156120ef576120ee612077565b5b60006120fd848285016120c4565b91505092915050565b60008115159050919050565b61211b81612106565b82525050565b60006020820190506121366000830184612112565b92915050565b600081519050919050565b600082825260208201905092915050565b60005b8381101561217657808201518184015260208101905061215b565b60008484015250505050565b6000601f19601f8301169050919050565b600061219e8261213c565b6121a88185612147565b93506121b8818560208601612158565b6121c181612182565b840191505092915050565b600060208201905081810360008301526121e68184612193565b905092915050565b6000819050919050565b612201816121ee565b811461220c57600080fd5b50565b60008135905061221e816121f8565b92915050565b60006020828403121561223a57612239612077565b5b60006122488482850161220f565b91505092915050565b600073ffffffffffffffffffffffffffffffffffffffff82169050919050565b600061227c82612251565b9050919050565b61228c81612271565b82525050565b60006020820190506122a76000830184612283565b92915050565b6122b681612271565b81146122c157600080fd5b50565b6000813590506122d3816122ad565b92915050565b600080604083850312156122f0576122ef612077565b5b60006122fe858286016122c4565b925050602061230f8582860161220f565b9150509250929050565b60008060006060848603121561233257612331612077565b5b6000612340868287016122c4565b9350506020612351868287016122c4565b92505060406123628682870161220f565b9150509250925092565b6000806040838503121561238357612382612077565b5b60006123918582860161220f565b92505060206123a28582860161220f565b9150509250929050565b600080604083850312156123c3576123c2612077565b5b60006123d18582860161220f565b92505060206123e2858286016122c4565b9150509250929050565b6123f5816121ee565b82525050565b600060208201905061241060008301846123ec565b92915050565b600080fd5b600080fd5b7f4e487b7100000000000000000000000000000000000000000000000000000000600052604160045260246000fd5b61245882612182565b810181811067ffffffffffffffff8211171561247757612476612420565b5b80604052505050565b600061248a61206d565b9050612496828261244f565b919050565b600067ffffffffffffffff8211156124b6576124b5612420565b5b6124bf82612182565b9050602081019050919050565b82818337600083830152505050565b60006124ee6124e98461249b565b612480565b90508281526020810184848401111561250a5761250961241b565b5b6125158482856124cc565b509392505050565b600082601f83011261253257612531612416565b5b81356125428482602086016124db565b91505092915050565b60008060008060008060c0878903121561256857612567612077565b5b600087013567ffffffffffffffff8111156125865761258561207c565b5b61259289828a0161251d565b96505060206125a389828a0161220f565b95505060406125b489828a0161220f565b945050606087013567ffffffffffffffff8111156125d5576125d461207c565b5b6125e189828a0161251d565b935050608087013567ffffffffffffffff8111156126025761260161207c565b5b61260e89828a0161251d565b92505060a087013567ffffffffffffffff81111561262f5761262e61207c565b5b61263b89828a0161251d565b9150509295509295509295565b60006020828403121561265e5761265d612077565b5b600061266c848285016122c4565b91505092915050565b61267e816121ee565b82525050565b600082825260208201905092915050565b60006126a08261213c565b6126aa8185612684565b93506126ba818560208601612158565b6126c381612182565b840191505092915050565b600060e0830160008301516126e66000860182612675565b50602083015184820360208601526126fe8282612695565b91505060408301516127136040860182612675565b5060608301516127266060860182612675565b506080830151848203608086015261273e8282612695565b91505060a083015184820360a08601526127588282612695565b91505060c083015184820360c08601526127728282612695565b9150508091505092915050565b6000602082019050818103600083015261279981846126ce565b905092915050565b6127aa81612106565b81146127b557600080fd5b50565b6000813590506127c7816127a1565b92915050565b600080604083850312156127e4576127e3612077565b5b60006127f2858286016122c4565b9250506020612803858286016127b8565b9150509250929050565b600067ffffffffffffffff82111561282857612827612420565b5b61283182612182565b9050602081019050919050565b600061285161284c8461280d565b612480565b90508281526020810184848401111561286d5761286c61241b565b5b6128788482856124cc565b509392505050565b600082601f83011261289557612894612416565b5b81356128a584826020860161283e565b91505092915050565b600080600080608085870312156128c8576128c7612077565b5b60006128d6878288016122c4565b94505060206128e7878288016122c4565b93505060406128f88782880161220f565b925050606085013567ffffffffffffffff8111156129195761291861207c565b5b61292587828801612880565b91505092959194509250565b6000806040838503121561294857612947612077565b5b6000612956858286016122c4565b9250506020612967858286016122c4565b9150509250929050565b7f4e487b7100000000000000000000000000000000000000000000000000000000600052602260045260246000fd5b600060028204905060018216806129b857607f821691505b6020821081036129cb576129ca612971565b5b50919050565b7f4f6e6c7920746865206f776e65722063616e20706572666f726d20746869732060008201527f616374696f6e0000000000000000000000000000000000000000000000000000602082015250565b6000612a2d602683612147565b9150612a38826129d1565b604082019050919050565b60006020820190508181036000830152612a5c81612a20565b9050919050565b600081905092915050565b50565b6000612a7e600083612a63565b9150612a8982612a6e565b600082019050919050565b6000612a9f82612a71565b9150819050919050565b6000606082019050612abe6000830186612283565b612acb60208301856123ec565b612ad86040830184612283565b949350505050565b7f4e487b7100000000000000000000000000000000000000000000000000000000600052601160045260246000fd5b6000612b1a826121ee565b915060008203612b2d57612b2c612ae0565b5b600182039050919050565b6000612b43826121ee565b91507fffffffffffffffffffffffffffffffffffffffffffffffffffffffffffffffff8203612b7557612b74612ae0565b5b600182019050919050565b60008190508160005260206000209050919050565b60006020601f8301049050919050565b600082821b905092915050565b600060088302612be27fffffffffffffffffffffffffffffffffffffffffffffffffffffffffffffffff82612ba5565b612bec8683612ba5565b95508019841693508086168417925050509392505050565b6000819050919050565b6000612c29612c24612c1f846121ee565b612c04565b6121ee565b9050919050565b6000819050919050565b612c4383612c0e565b612c57612c4f82612c30565b848454612bb2565b825550505050565b600090565b612c6c612c5f565b612c77818484612c3a565b505050565b5b81811015612c9b57612c90600082612c64565b600181019050612c7d565b5050565b601f821115612ce057612cb181612b80565b612cba84612b95565b81016020851015612cc9578190505b612cdd612cd585612b95565b830182612c7c565b50505b505050565b600082821c905092915050565b6000612d0360001984600802612ce5565b1980831691505092915050565b6000612d1c8383612cf2565b9150826002028217905092915050565b612d358261213c565b67ffffffffffffffff811115612d4e57612d4d612420565b5b612d5882546129a0565b612d63828285612c9f565b600060209050601f831160018114612d965760008415612d84578287015190505b612d8e8582612d10565b865550612df6565b601f198416612da486612b80565b60005b82811015612dcc57848901518255600182019150602085019450602081019050612da7565b86831015612de95784890151612de5601f891682612cf2565b8355505b6001600288020188555050505b505050505050565b600081905092915050565b6000612e148261213c565b612e1e8185612dfe565b9350612e2e818560208601612158565b80840191505092915050565b6000612e468285612e09565b9150612e528284612e09565b91508190509392505050565b600081519050919050565b600082825260208201905092915050565b6000612e8582612e5e565b612e8f8185612e69565b9350612e9f818560208601612158565b612ea881612182565b840191505092915050565b6000608082019050612ec86000830187612283565b612ed56020830186612283565b612ee260408301856123ec565b8181036060830152612ef48184612e7a565b905095945050505050565b600081519050612f0e816120ad565b92915050565b600060208284031215612f2a57612f29612077565b5b6000612f3884828501612eff565b91505092915050565b7f4e487b7100000000000000000000000000000000000000000000000000000000600052601260045260246000fd5b6000604082019050612f856000830185612283565b612f9260208301846123ec565b939250505056fea2646970667358221220773983f13f0eb57b31c6f7594ce27ac1815aee5312a18159dbfe786f088cee9464736f6c63430008180033",
    "linkReferences": {},
    "deployedLinkReferences": {}
}